{
  "_format": "hh-sol-artifact-1",
  "contractName": "Token",
  "sourceName": "contracts/token.sol",
  "abi": [
    {
      "inputs": [
        {
          "internalType": "string",
          "name": "name",
          "type": "string"
        },
        {
          "internalType": "string",
          "name": "symbol",
          "type": "string"
        },
        {
          "internalType": "uint256",
          "name": "initialSupply",
          "type": "uint256"
        },
        {
          "internalType": "uint256",
          "name": "_feePercent",
          "type": "uint256"
        },
        {
          "internalType": "address",
          "name": "_feeCollector",
          "type": "address"
        }
      ],
      "stateMutability": "nonpayable",
      "type": "constructor"
    },
    {
      "inputs": [
        {
          "internalType": "address",
          "name": "spender",
          "type": "address"
        },
        {
          "internalType": "uint256",
          "name": "allowance",
          "type": "uint256"
        },
        {
          "internalType": "uint256",
          "name": "needed",
          "type": "uint256"
        }
      ],
      "name": "ERC20InsufficientAllowance",
      "type": "error"
    },
    {
      "inputs": [
        {
          "internalType": "address",
          "name": "sender",
          "type": "address"
        },
        {
          "internalType": "uint256",
          "name": "balance",
          "type": "uint256"
        },
        {
          "internalType": "uint256",
          "name": "needed",
          "type": "uint256"
        }
      ],
      "name": "ERC20InsufficientBalance",
      "type": "error"
    },
    {
      "inputs": [
        {
          "internalType": "address",
          "name": "approver",
          "type": "address"
        }
      ],
      "name": "ERC20InvalidApprover",
      "type": "error"
    },
    {
      "inputs": [
        {
          "internalType": "address",
          "name": "receiver",
          "type": "address"
        }
      ],
      "name": "ERC20InvalidReceiver",
      "type": "error"
    },
    {
      "inputs": [
        {
          "internalType": "address",
          "name": "sender",
          "type": "address"
        }
      ],
      "name": "ERC20InvalidSender",
      "type": "error"
    },
    {
      "inputs": [
        {
          "internalType": "address",
          "name": "spender",
          "type": "address"
        }
      ],
      "name": "ERC20InvalidSpender",
      "type": "error"
    },
    {
      "anonymous": false,
      "inputs": [
        {
          "indexed": true,
          "internalType": "address",
          "name": "owner",
          "type": "address"
        },
        {
          "indexed": true,
          "internalType": "address",
          "name": "spender",
          "type": "address"
        },
        {
          "indexed": false,
          "internalType": "uint256",
          "name": "value",
          "type": "uint256"
        }
      ],
      "name": "Approval",
      "type": "event"
    },
    {
      "anonymous": false,
      "inputs": [
        {
          "indexed": true,
          "internalType": "address",
          "name": "from",
          "type": "address"
        },
        {
          "indexed": true,
          "internalType": "address",
          "name": "to",
          "type": "address"
        },
        {
          "indexed": false,
          "internalType": "uint256",
          "name": "value",
          "type": "uint256"
        }
      ],
      "name": "Transfer",
      "type": "event"
    },
    {
      "inputs": [
        {
          "internalType": "address",
          "name": "owner",
          "type": "address"
        },
        {
          "internalType": "address",
          "name": "spender",
          "type": "address"
        }
      ],
      "name": "allowance",
      "outputs": [
        {
          "internalType": "uint256",
          "name": "",
          "type": "uint256"
        }
      ],
      "stateMutability": "view",
      "type": "function"
    },
    {
      "inputs": [
        {
          "internalType": "address",
          "name": "spender",
          "type": "address"
        },
        {
          "internalType": "uint256",
          "name": "value",
          "type": "uint256"
        }
      ],
      "name": "approve",
      "outputs": [
        {
          "internalType": "bool",
          "name": "",
          "type": "bool"
        }
      ],
      "stateMutability": "nonpayable",
      "type": "function"
    },
    {
      "inputs": [
        {
          "internalType": "address",
          "name": "account",
          "type": "address"
        }
      ],
      "name": "balanceOf",
      "outputs": [
        {
          "internalType": "uint256",
          "name": "",
          "type": "uint256"
        }
      ],
      "stateMutability": "view",
      "type": "function"
    },
    {
      "inputs": [],
      "name": "decimals",
      "outputs": [
        {
          "internalType": "uint8",
          "name": "",
          "type": "uint8"
        }
      ],
      "stateMutability": "view",
      "type": "function"
    },
    {
      "inputs": [],
      "name": "feeCollector",
      "outputs": [
        {
          "internalType": "address",
          "name": "",
          "type": "address"
        }
      ],
      "stateMutability": "view",
      "type": "function"
    },
    {
      "inputs": [],
      "name": "feePercent",
      "outputs": [
        {
          "internalType": "uint256",
          "name": "",
          "type": "uint256"
        }
      ],
      "stateMutability": "view",
      "type": "function"
    },
    {
      "inputs": [],
      "name": "name",
      "outputs": [
        {
          "internalType": "string",
          "name": "",
          "type": "string"
        }
      ],
      "stateMutability": "view",
      "type": "function"
    },
    {
      "inputs": [],
      "name": "symbol",
      "outputs": [
        {
          "internalType": "string",
          "name": "",
          "type": "string"
        }
      ],
      "stateMutability": "view",
      "type": "function"
    },
    {
      "inputs": [],
      "name": "totalSupply",
      "outputs": [
        {
          "internalType": "uint256",
          "name": "",
          "type": "uint256"
        }
      ],
      "stateMutability": "view",
      "type": "function"
    },
    {
      "inputs": [
        {
          "internalType": "address",
          "name": "to",
          "type": "address"
        },
        {
          "internalType": "uint256",
          "name": "value",
          "type": "uint256"
        }
      ],
      "name": "transfer",
      "outputs": [
        {
          "internalType": "bool",
          "name": "",
          "type": "bool"
        }
      ],
      "stateMutability": "nonpayable",
      "type": "function"
    },
    {
      "inputs": [
        {
          "internalType": "address",
          "name": "from",
          "type": "address"
        },
        {
          "internalType": "address",
          "name": "to",
          "type": "address"
        },
        {
          "internalType": "uint256",
          "name": "value",
          "type": "uint256"
        }
      ],
      "name": "transferFrom",
      "outputs": [
        {
          "internalType": "bool",
          "name": "",
          "type": "bool"
        }
      ],
      "stateMutability": "nonpayable",
      "type": "function"
    }
  ],
  "bytecode": "0x608060405234801561001057600080fd5b50604051610f20380380610f2083398101604081905261002f91610361565b8484600361003d8382610482565b50600461004a8282610482565b5050600580546001600160a01b0319166001600160a01b03841617905550600682905561009333610079601290565b61008490600a61063f565b61008e9086610655565b61009d565b50505050506106b4565b6001600160a01b0382166100cc5760405163ec442f0560e01b8152600060048201526024015b60405180910390fd5b6100d8600083836100dc565b5050565b6001600160a01b03831615806100f957506001600160a01b038216155b8061011157506005546001600160a01b038381169116145b156101265761012183838361017e565b505050565b6000612710600654836101399190610655565b610143919061066c565b90506000610151828461068e565b60055490915061016c9086906001600160a01b03168461017e565b61017785858361017e565b5050505050565b6001600160a01b0383166101a957806002600082825461019e91906106a1565b9091555061021b9050565b6001600160a01b038316600090815260208190526040902054818110156101fc5760405163391434e360e21b81526001600160a01b038516600482015260248101829052604481018390526064016100c3565b6001600160a01b03841660009081526020819052604090209082900390555b6001600160a01b03821661023757600280548290039055610256565b6001600160a01b03821660009081526020819052604090208054820190555b816001600160a01b0316836001600160a01b03167fddf252ad1be2c89b69c2b068fc378daa952ba7f163c4a11628f55a4df523b3ef8360405161029b91815260200190565b60405180910390a3505050565b634e487b7160e01b600052604160045260246000fd5b600082601f8301126102cf57600080fd5b81516001600160401b038111156102e8576102e86102a8565b604051601f8201601f19908116603f011681016001600160401b0381118282101715610316576103166102a8565b60405281815283820160200185101561032e57600080fd5b60005b8281101561034d57602081860181015183830182015201610331565b506000918101602001919091529392505050565b600080600080600060a0868803121561037957600080fd5b85516001600160401b0381111561038f57600080fd5b61039b888289016102be565b602088015190965090506001600160401b038111156103b957600080fd5b6103c5888289016102be565b6040880151606089015160808a0151929750909550935090506001600160a01b03811681146103f357600080fd5b809150509295509295909350565b600181811c9082168061041557607f821691505b60208210810361043557634e487b7160e01b600052602260045260246000fd5b50919050565b601f82111561012157806000526020600020601f840160051c810160208510156104625750805b601f840160051c820191505b81811015610177576000815560010161046e565b81516001600160401b0381111561049b5761049b6102a8565b6104af816104a98454610401565b8461043b565b6020601f8211600181146104e357600083156104cb5750848201515b600019600385901b1c1916600184901b178455610177565b600084815260208120601f198516915b8281101561051357878501518255602094850194600190920191016104f3565b50848210156105315786840151600019600387901b60f8161c191681555b50505050600190811b01905550565b634e487b7160e01b600052601160045260246000fd5b6001815b60018411156105915780850481111561057557610575610540565b600184161561058357908102905b60019390931c92800261055a565b935093915050565b6000826105a857506001610639565b816105b557506000610639565b81600181146105cb57600281146105d5576105f1565b6001915050610639565b60ff8411156105e6576105e6610540565b50506001821b610639565b5060208310610133831016604e8410600b8410161715610614575081810a610639565b6106216000198484610556565b806000190482111561063557610635610540565b0290505b92915050565b600061064e60ff841683610599565b9392505050565b808202811582820484141761063957610639610540565b60008261068957634e487b7160e01b600052601260045260246000fd5b500490565b8181038181111561063957610639610540565b8082018082111561063957610639610540565b61085d806106c36000396000f3fe608060405234801561001057600080fd5b50600436106100a95760003560e01c806370a082311161007157806370a08231146101235780637fd6f15c1461014c57806395d89b4114610155578063a9059cbb1461015d578063c415b95c14610170578063dd62ed3e1461019b57600080fd5b806306fdde03146100ae578063095ea7b3146100cc57806318160ddd146100ef57806323b872dd14610101578063313ce56714610114575b600080fd5b6100b66101d4565b6040516100c39190610652565b60405180910390f35b6100df6100da3660046106bc565b610266565b60405190151581526020016100c3565b6002545b6040519081526020016100c3565b6100df61010f3660046106e6565b610280565b604051601281526020016100c3565b6100f3610131366004610723565b6001600160a01b031660009081526020819052604090205490565b6100f360065481565b6100b66102a4565b6100df61016b3660046106bc565b6102b3565b600554610183906001600160a01b031681565b6040516001600160a01b0390911681526020016100c3565b6100f36101a9366004610745565b6001600160a01b03918216600090815260016020908152604080832093909416825291909152205490565b6060600380546101e390610778565b80601f016020809104026020016040519081016040528092919081815260200182805461020f90610778565b801561025c5780601f106102315761010080835404028352916020019161025c565b820191906000526020600020905b81548152906001019060200180831161023f57829003601f168201915b5050505050905090565b6000336102748185856102c1565b60019150505b92915050565b60003361028e8582856102d3565b610299858585610357565b506001949350505050565b6060600480546101e390610778565b600033610274818585610357565b6102ce83838360016103b6565b505050565b6001600160a01b03838116600090815260016020908152604080832093861683529290522054600019811015610351578181101561034257604051637dc7a0d960e11b81526001600160a01b038416600482015260248101829052604481018390526064015b60405180910390fd5b610351848484840360006103b6565b50505050565b6001600160a01b03831661038157604051634b637e8f60e11b815260006004820152602401610339565b6001600160a01b0382166103ab5760405163ec442f0560e01b815260006004820152602401610339565b6102ce83838361048b565b6001600160a01b0384166103e05760405163e602df0560e01b815260006004820152602401610339565b6001600160a01b03831661040a57604051634a1406b160e11b815260006004820152602401610339565b6001600160a01b038085166000908152600160209081526040808320938716835292905220829055801561035157826001600160a01b0316846001600160a01b03167f8c5be1e5ebec7d5bd14f71427d1e84f3dd0314c0f7b2291e5b200ac8c7c3b9258460405161047d91815260200190565b60405180910390a350505050565b6001600160a01b03831615806104a857506001600160a01b038216155b806104c057506005546001600160a01b038381169116145b156104d0576102ce838383610528565b6000612710600654836104e391906107c8565b6104ed91906107df565b905060006104fb8284610801565b6005549091506105169086906001600160a01b031684610528565b610521858583610528565b5050505050565b6001600160a01b0383166105535780600260008282546105489190610814565b909155506105c59050565b6001600160a01b038316600090815260208190526040902054818110156105a65760405163391434e360e21b81526001600160a01b03851660048201526024810182905260448101839052606401610339565b6001600160a01b03841660009081526020819052604090209082900390555b6001600160a01b0382166105e157600280548290039055610600565b6001600160a01b03821660009081526020819052604090208054820190555b816001600160a01b0316836001600160a01b03167fddf252ad1be2c89b69c2b068fc378daa952ba7f163c4a11628f55a4df523b3ef8360405161064591815260200190565b60405180910390a3505050565b602081526000825180602084015260005b818110156106805760208186018101516040868401015201610663565b506000604082850101526040601f19601f83011684010191505092915050565b80356001600160a01b03811681146106b757600080fd5b919050565b600080604083850312156106cf57600080fd5b6106d8836106a0565b946020939093013593505050565b6000806000606084860312156106fb57600080fd5b610704846106a0565b9250610712602085016106a0565b929592945050506040919091013590565b60006020828403121561073557600080fd5b61073e826106a0565b9392505050565b6000806040838503121561075857600080fd5b610761836106a0565b915061076f602084016106a0565b90509250929050565b600181811c9082168061078c57607f821691505b6020821081036107ac57634e487b7160e01b600052602260045260246000fd5b50919050565b634e487b7160e01b600052601160045260246000fd5b808202811582820484141761027a5761027a6107b2565b6000826107fc57634e487b7160e01b600052601260045260246000fd5b500490565b8181038181111561027a5761027a6107b2565b8082018082111561027a5761027a6107b256fea2646970667358221220c56515e79faca3768c59e846fe242d85338901b91de7bd08e5d35c64bbbe20e564736f6c634300081c0033",
  "linkReferences": {},
  "deployedLinkReferences": {}
}