{
  "_format": "hh-sol-artifact-1",
  "contractName": "Token",
  "sourceName": "contracts/token.sol",
  "abi": [
    {
      "inputs": [
        {
          "internalType": "string",
          "name": "name",
          "type": "string"
        },
        {
          "internalType": "string",
          "name": "symbol",
          "type": "string"
        },
        {
          "internalType": "uint256",
          "name": "initialSupply",
          "type": "uint256"
        },
        {
          "internalType": "uint256",
          "name": "_feePercent",
          "type": "uint256"
        },
        {
          "internalType": "address",
          "name": "_feeCollector",
          "type": "address"
        }
      ],
      "stateMutability": "nonpayable",
      "type": "constructor"
    },
    {
      "inputs": [
        {
          "internalType": "address",
          "name": "spender",
          "type": "address"
        },
        {
          "internalType": "uint256",
          "name": "allowance",
          "type": "uint256"
        },
        {
          "internalType": "uint256",
          "name": "needed",
          "type": "uint256"
        }
      ],
      "name": "ERC20InsufficientAllowance",
      "type": "error"
    },
    {
      "inputs": [
        {
          "internalType": "address",
          "name": "sender",
          "type": "address"
        },
        {
          "internalType": "uint256",
          "name": "balance",
          "type": "uint256"
        },
        {
          "internalType": "uint256",
          "name": "needed",
          "type": "uint256"
        }
      ],
      "name": "ERC20InsufficientBalance",
      "type": "error"
    },
    {
      "inputs": [
        {
          "internalType": "address",
          "name": "approver",
          "type": "address"
        }
      ],
      "name": "ERC20InvalidApprover",
      "type": "error"
    },
    {
      "inputs": [
        {
          "internalType": "address",
          "name": "receiver",
          "type": "address"
        }
      ],
      "name": "ERC20InvalidReceiver",
      "type": "error"
    },
    {
      "inputs": [
        {
          "internalType": "address",
          "name": "sender",
          "type": "address"
        }
      ],
      "name": "ERC20InvalidSender",
      "type": "error"
    },
    {
      "inputs": [
        {
          "internalType": "address",
          "name": "spender",
          "type": "address"
        }
      ],
      "name": "ERC20InvalidSpender",
      "type": "error"
    },
    {
      "anonymous": false,
      "inputs": [
        {
          "indexed": true,
          "internalType": "address",
          "name": "owner",
          "type": "address"
        },
        {
          "indexed": true,
          "internalType": "address",
          "name": "spender",
          "type": "address"
        },
        {
          "indexed": false,
          "internalType": "uint256",
          "name": "value",
          "type": "uint256"
        }
      ],
      "name": "Approval",
      "type": "event"
    },
    {
      "anonymous": false,
      "inputs": [
        {
          "indexed": true,
          "internalType": "address",
          "name": "from",
          "type": "address"
        },
        {
          "indexed": true,
          "internalType": "address",
          "name": "to",
          "type": "address"
        },
        {
          "indexed": false,
          "internalType": "uint256",
          "name": "value",
          "type": "uint256"
        }
      ],
      "name": "Transfer",
      "type": "event"
    },
    {
      "inputs": [
        {
          "internalType": "address",
          "name": "owner",
          "type": "address"
        },
        {
          "internalType": "address",
          "name": "spender",
          "type": "address"
        }
      ],
      "name": "allowance",
      "outputs": [
        {
          "internalType": "uint256",
          "name": "",
          "type": "uint256"
        }
      ],
      "stateMutability": "view",
      "type": "function"
    },
    {
      "inputs": [
        {
          "internalType": "address",
          "name": "spender",
          "type": "address"
        },
        {
          "internalType": "uint256",
          "name": "value",
          "type": "uint256"
        }
      ],
      "name": "approve",
      "outputs": [
        {
          "internalType": "bool",
          "name": "",
          "type": "bool"
        }
      ],
      "stateMutability": "nonpayable",
      "type": "function"
    },
    {
      "inputs": [
        {
          "internalType": "address",
          "name": "account",
          "type": "address"
        }
      ],
      "name": "balanceOf",
      "outputs": [
        {
          "internalType": "uint256",
          "name": "",
          "type": "uint256"
        }
      ],
      "stateMutability": "view",
      "type": "function"
    },
    {
      "inputs": [],
      "name": "decimals",
      "outputs": [
        {
          "internalType": "uint8",
          "name": "",
          "type": "uint8"
        }
      ],
      "stateMutability": "view",
      "type": "function"
    },
    {
      "inputs": [],
      "name": "feeCollector",
      "outputs": [
        {
          "internalType": "address",
          "name": "",
          "type": "address"
        }
      ],
      "stateMutability": "view",
      "type": "function"
    },
    {
      "inputs": [],
      "name": "feePercent",
      "outputs": [
        {
          "internalType": "uint256",
          "name": "",
          "type": "uint256"
        }
      ],
      "stateMutability": "view",
      "type": "function"
    },
    {
      "inputs": [],
      "name": "name",
      "outputs": [
        {
          "internalType": "string",
          "name": "",
          "type": "string"
        }
      ],
      "stateMutability": "view",
      "type": "function"
    },
    {
      "inputs": [],
      "name": "symbol",
      "outputs": [
        {
          "internalType": "string",
          "name": "",
          "type": "string"
        }
      ],
      "stateMutability": "view",
      "type": "function"
    },
    {
      "inputs": [],
      "name": "totalSupply",
      "outputs": [
        {
          "internalType": "uint256",
          "name": "",
          "type": "uint256"
        }
      ],
      "stateMutability": "view",
      "type": "function"
    },
    {
      "inputs": [
        {
          "internalType": "address",
          "name": "to",
          "type": "address"
        },
        {
          "internalType": "uint256",
          "name": "value",
          "type": "uint256"
        }
      ],
      "name": "transfer",
      "outputs": [
        {
          "internalType": "bool",
          "name": "",
          "type": "bool"
        }
      ],
      "stateMutability": "nonpayable",
      "type": "function"
    },
    {
      "inputs": [
        {
          "internalType": "address",
          "name": "from",
          "type": "address"
        },
        {
          "internalType": "address",
          "name": "to",
          "type": "address"
        },
        {
          "internalType": "uint256",
          "name": "value",
          "type": "uint256"
        }
      ],
      "name": "transferFrom",
      "outputs": [
        {
          "internalType": "bool",
          "name": "",
          "type": "bool"
        }
      ],
      "stateMutability": "nonpayable",
      "type": "function"
    }
  ],
  "bytecode": "0x608060405234801561001057600080fd5b50604051610e0b380380610e0b83398101604081905261002f91610345565b8484600361003d8382610466565b50600461004a8282610466565b5050600580546001600160a01b0319166001600160a01b0384161790555060068290556100773384610081565b505050505061059f565b6001600160a01b0382166100b05760405163ec442f0560e01b8152600060048201526024015b60405180910390fd5b6100bc600083836100c0565b5050565b6001600160a01b03831615806100dd57506001600160a01b038216155b806100f557506005546001600160a01b038381169116145b1561010a57610105838383610162565b505050565b60006127106006548361011d919061053a565b6101279190610557565b905060006101358284610579565b6005549091506101509086906001600160a01b031684610162565b61015b858583610162565b5050505050565b6001600160a01b03831661018d578060026000828254610182919061058c565b909155506101ff9050565b6001600160a01b038316600090815260208190526040902054818110156101e05760405163391434e360e21b81526001600160a01b038516600482015260248101829052604481018390526064016100a7565b6001600160a01b03841660009081526020819052604090209082900390555b6001600160a01b03821661021b5760028054829003905561023a565b6001600160a01b03821660009081526020819052604090208054820190555b816001600160a01b0316836001600160a01b03167fddf252ad1be2c89b69c2b068fc378daa952ba7f163c4a11628f55a4df523b3ef8360405161027f91815260200190565b60405180910390a3505050565b634e487b7160e01b600052604160045260246000fd5b600082601f8301126102b357600080fd5b81516001600160401b038111156102cc576102cc61028c565b604051601f8201601f19908116603f011681016001600160401b03811182821017156102fa576102fa61028c565b60405281815283820160200185101561031257600080fd5b60005b8281101561033157602081860181015183830182015201610315565b506000918101602001919091529392505050565b600080600080600060a0868803121561035d57600080fd5b85516001600160401b0381111561037357600080fd5b61037f888289016102a2565b602088015190965090506001600160401b0381111561039d57600080fd5b6103a9888289016102a2565b6040880151606089015160808a0151929750909550935090506001600160a01b03811681146103d757600080fd5b809150509295509295909350565b600181811c908216806103f957607f821691505b60208210810361041957634e487b7160e01b600052602260045260246000fd5b50919050565b601f82111561010557806000526020600020601f840160051c810160208510156104465750805b601f840160051c820191505b8181101561015b5760008155600101610452565b81516001600160401b0381111561047f5761047f61028c565b6104938161048d84546103e5565b8461041f565b6020601f8211600181146104c757600083156104af5750848201515b600019600385901b1c1916600184901b17845561015b565b600084815260208120601f198516915b828110156104f757878501518255602094850194600190920191016104d7565b50848210156105155786840151600019600387901b60f8161c191681555b50505050600190811b01905550565b634e487b7160e01b600052601160045260246000fd5b808202811582820484141761055157610551610524565b92915050565b60008261057457634e487b7160e01b600052601260045260246000fd5b500490565b8181038181111561055157610551610524565b8082018082111561055157610551610524565b61085d806105ae6000396000f3fe608060405234801561001057600080fd5b50600436106100a95760003560e01c806370a082311161007157806370a08231146101235780637fd6f15c1461014c57806395d89b4114610155578063a9059cbb1461015d578063c415b95c14610170578063dd62ed3e1461019b57600080fd5b806306fdde03146100ae578063095ea7b3146100cc57806318160ddd146100ef57806323b872dd14610101578063313ce56714610114575b600080fd5b6100b66101d4565b6040516100c39190610652565b60405180910390f35b6100df6100da3660046106bc565b610266565b60405190151581526020016100c3565b6002545b6040519081526020016100c3565b6100df61010f3660046106e6565b610280565b604051601281526020016100c3565b6100f3610131366004610723565b6001600160a01b031660009081526020819052604090205490565b6100f360065481565b6100b66102a4565b6100df61016b3660046106bc565b6102b3565b600554610183906001600160a01b031681565b6040516001600160a01b0390911681526020016100c3565b6100f36101a9366004610745565b6001600160a01b03918216600090815260016020908152604080832093909416825291909152205490565b6060600380546101e390610778565b80601f016020809104026020016040519081016040528092919081815260200182805461020f90610778565b801561025c5780601f106102315761010080835404028352916020019161025c565b820191906000526020600020905b81548152906001019060200180831161023f57829003601f168201915b5050505050905090565b6000336102748185856102c1565b60019150505b92915050565b60003361028e8582856102d3565b610299858585610357565b506001949350505050565b6060600480546101e390610778565b600033610274818585610357565b6102ce83838360016103b6565b505050565b6001600160a01b03838116600090815260016020908152604080832093861683529290522054600019811015610351578181101561034257604051637dc7a0d960e11b81526001600160a01b038416600482015260248101829052604481018390526064015b60405180910390fd5b610351848484840360006103b6565b50505050565b6001600160a01b03831661038157604051634b637e8f60e11b815260006004820152602401610339565b6001600160a01b0382166103ab5760405163ec442f0560e01b815260006004820152602401610339565b6102ce83838361048b565b6001600160a01b0384166103e05760405163e602df0560e01b815260006004820152602401610339565b6001600160a01b03831661040a57604051634a1406b160e11b815260006004820152602401610339565b6001600160a01b038085166000908152600160209081526040808320938716835292905220829055801561035157826001600160a01b0316846001600160a01b03167f8c5be1e5ebec7d5bd14f71427d1e84f3dd0314c0f7b2291e5b200ac8c7c3b9258460405161047d91815260200190565b60405180910390a350505050565b6001600160a01b03831615806104a857506001600160a01b038216155b806104c057506005546001600160a01b038381169116145b156104d0576102ce838383610528565b6000612710600654836104e391906107c8565b6104ed91906107df565b905060006104fb8284610801565b6005549091506105169086906001600160a01b031684610528565b610521858583610528565b5050505050565b6001600160a01b0383166105535780600260008282546105489190610814565b909155506105c59050565b6001600160a01b038316600090815260208190526040902054818110156105a65760405163391434e360e21b81526001600160a01b03851660048201526024810182905260448101839052606401610339565b6001600160a01b03841660009081526020819052604090209082900390555b6001600160a01b0382166105e157600280548290039055610600565b6001600160a01b03821660009081526020819052604090208054820190555b816001600160a01b0316836001600160a01b03167fddf252ad1be2c89b69c2b068fc378daa952ba7f163c4a11628f55a4df523b3ef8360405161064591815260200190565b60405180910390a3505050565b602081526000825180602084015260005b818110156106805760208186018101516040868401015201610663565b506000604082850101526040601f19601f83011684010191505092915050565b80356001600160a01b03811681146106b757600080fd5b919050565b600080604083850312156106cf57600080fd5b6106d8836106a0565b946020939093013593505050565b6000806000606084860312156106fb57600080fd5b610704846106a0565b9250610712602085016106a0565b929592945050506040919091013590565b60006020828403121561073557600080fd5b61073e826106a0565b9392505050565b6000806040838503121561075857600080fd5b610761836106a0565b915061076f602084016106a0565b90509250929050565b600181811c9082168061078c57607f821691505b6020821081036107ac57634e487b7160e01b600052602260045260246000fd5b50919050565b634e487b7160e01b600052601160045260246000fd5b808202811582820484141761027a5761027a6107b2565b6000826107fc57634e487b7160e01b600052601260045260246000fd5b500490565b8181038181111561027a5761027a6107b2565b8082018082111561027a5761027a6107b256fea264697066735822122046ed89f2b77902bcab453b89012f34718fca26840690e9d9d3590a7276e0e5b064736f6c634300081c0033",
  "linkReferences": {},
  "deployedLinkReferences": {}
}